:020000040800F2
:1000000028B40020791F01087D1A01087F1A010811
:10001000811A0108831A0108851A010800000000EE
:1000200000000000000000000000000031CC0008CB
:10003000871A010800000000D5CB000837B300087C
:100040002120010825200108292001082D20010870
:100050003120010835200108392001083D20010820
:100060004120010845200108492001084D200108D0
:100070005120010855200108592001085D20010880
:100080006120010865200108692001086D20010830
:100090007120010875200108792001087D200108E0
:1000A0008120010885200108892001088D20010890
:1000B0009120010895200108992001089D20010840
:1000C000A1200108A5200108A9200108AD200108F0
:1000D000B1200108B5200108B9200108BD200108A0
:1000E000C1200108C5200108C9200108CD20010850
:1000F000D1200108D5200108D9200108DD20010800
:10010000E1200108E5200108E9200108ED200108AF
:10011000F1200108F5200108891A0108F9200108D9
:10012000FD2001080121010805210108092101081C
:100130000D210108112101081521010819210108CB
:100140001D21010821210108252101088F1A01081C
:10015000292101082D21010831210108352101083B
:10016000392101083D2101084121010845210108EB
:10017000492101084D21010851210108000000001A
:1001800055210108592101085D210108612101085B
:1001900065210108692101086D210108712101080B
:1001A000951A0108752101089B1A01087921010897
:1001B0007D2101088121010885210108892101088B
:1001C0008D2101089121010800F5E070026891423B
:1001D00003D343681A44914202D380680028F5D1C2
:1001E0007047DFF86C17086890B94FF4805048608A
:1001F0004FF480324FF0FF30C86008610420DFF810
:1002000054378A604861C3F8BC01DFF84C070860C6
:100210000120704701F1080313F0070F0EBF002300
:10022000C3F1080303F007031944D21A8161C260C5
:1002300042F001034B60091D4FF0280C41F802C049
:10024000DFF80C271369C36170472DE9FC4B0746A3
:1002500001F1080010F0070F0FBF8946C0F1080038
:1002600000F0070001EB000902F1080111F0070F8F
:1002700006D002F10800C0F1080000F007000244B7
:100280001546A5EB090009EB0306A0EB030B43F0B1
:100290000303C9F80430AE4228BF01F005FA2879FB
:1002A000C10758BF01F000FABBF1100F38BF01F0D1
:1002B000FBF9B869854208D1F9688B44C7F80CB0DE
:1002C000BE614BF00100706051E1786985420AD14E
:1002D000B9688B44C7F808B07E614BF001007060CC
:1002E00046F80BB043E1686800F00301012940F0D3
:1002F000AC80C008C0000190C0081F2839D8AC6885
:10030000D5F80C800090454508BF01F0CDF9A54215
:1003100008BF01F0C9F968680099C008C000B0EBD7
:10032000C10F18BF01F0C0F9009907F1280000EBD8
:10033000C100844206D039698C42C0F08180E268F5
:10034000AA427DD1A04506D1009839680123834097
:100350009943396076E0804506D0396988456FD386
:10036000D8F80800A8426BD1C4F80C80C8F808403F
:1003700068E0EC68D5F81880AC420CD0A868396900
:10038000884223D3C268AA4204BFA168A9421DD1F2
:10039000C460A0601CE005F114010C6834B905F1DB
:1003A00010010C68A4B101E011460C6804F11402BC
:1003B0001068002802BF04F1100210680028F3D171
:1003C0003869814202D300220A6001E001F06CF931
:1003D000B8F1000F36D0E96907F5987000EB81009D
:1003E0000268954208D10460A4B9E86979680122DD
:1003F00082409143796025E03869804508D3D8F878
:100400001010A94214BFC8F81440C8F8104001E009
:1004100001F04AF9B4B139698C4211D3C4F818809B
:10042000286928B1884226BF2061846101F03CF927
:10043000686938B13969884202D36061846101E03A
:1004400001F032F901996D188B4469684908490037
:1004500069604BF0010070604FEADB0446F80BB0B6
:100460001F2C23D807F1280000EBC4084546BBF138
:10047000100F38BF01F018F9386820FA04F1CA07E4
:1004800005D4012101FA04F404433C6007E0D8F8E4
:100490000800396988422CBF054601F005F9C8F803
:1004A0000860EE60B560C6F80C8060E05FEA1B2073
:1004B00008BF002123D0B0F5803F28BF1F211ED2E6
:1004C000A0F58072120C02F008029040A0F5805155
:1004D000090C01F004018840A0F580431B0CC2F117
:1004E0000E0203F00203521AD21A984002EBD032E5
:1004F000D01D2BFA00F101F0010101EB4201F16185
:10050000002307F59872736102EB810033617A680A
:1005100022FA01F3DC0707D4012303FA01F11143A6
:1005200079600660B0611DE002681F291DBF49089F
:10053000C1F119010BFA01F1594600E00246506879
:10054000C008C000584516D002F11003C80F03EBD5
:100550008003490018680028F0D13869834204D329
:100560001E60B261F660B66001E001F09DF809F12D
:100570000800BDE8F68B396990688A4228BF884236
:10058000F3D3C6609660B060F2600020B061EEE721
:100590002DE9FE4F04468B46A5692E4690469946A6
:1005A0003146FFF711FE0268416802EB010AAAF129
:1005B000270111F007000EBF0021C1F1080101F071
:1005C00007010AEB0100A0F12F0706F110018F428D
:1005D00038BF374607F11802002101920091A8F1B7
:1005E000280259462046FFF715FE07F1080010F0D3
:1005F000070F18BF01F058F81B20786007F10801B9
:1006000004F5E07090E80C5081E80C50C0F800B0A0
:10061000C0F80480C0F80C9081600722019800990E
:1006200000E0001D491C00F1080353454260F8D367
:100630000129D8BF01F038F8B74200F09580BF1B00
:10064000301D321DC15949084900D15147F0010000
:1006500070604FEAD70BF751BBF11F0F21D804EBA5
:10066000CB0000F12805A846102F38BF01F01CF878
:10067000206820FA0BF1CA0705D4012101FA0BF119
:100680000843206006E0A868216988422CBF8046A4
:1006900001F00AF8AE60C8F80C60C6F80880F56092
:1006A0006FE0380A08BF002123D0B0F5803F28BF93
:1006B0001F211ED2A0F58072120C02F00802904099
:1006C000A0F58051090C01F004018840A0F5804399
:1006D0001B0CC2F10E0203F00203521AD21A984008
:1006E00002EBD032D01D27FA00F101F0010101EB3D
:1006F000420104EB8102002302F59870F1617361FD
:100700003361626822FA01F3DB0707D4012303FA9D
:1007100001F1114361600660B0611DE002681F29AC
:100720001DBF4908C1F1190107FA01F1394600E07E
:1007300002465068C008C000B84216D002F110034B
:10074000C80F03EB8003490018680028F0D1206926
:10075000834204D31E60B261F660B56011E003B05D
:10076000BDE8F04F00F0A0BF0BE0216990688A421D
:1007700028BF8842F3D3C6609560B060F260002065
:10078000B06103B0BDE8F08F2DE9F041704F054630
:100790003868884608B9FFF724FDB96801EB0800FE
:1007A0002F30491E20EA010188457DD205F5D87613
:1007B000B06828B1326889188A4275D2884273D3EA
:1007C00000F0B2FF01001CBF0C6811F1010F6BD0EB
:1007D0003068201805F5D87230605368984238BFE9
:1007E00018467060A86960BB286908B1814200D2D0
:1007F0002961316174610020F0614FF0FF303A6887
:100800006A62286205F128020020D260926002F13B
:10081000080757611761801C10322028F5D34D4816
:10082000854208BFA4F1280228D055F8040CC0085E
:1008300005EBC002A2F108000A19121A283A014673
:100840001CE005F5E070024600E092687AB3136898
:1008500057681F44B942F8D1137B1F0727D4AB69EF
:100860001768BB4223D3D2F804C06744BB421ED2F0
:10087000A444C2F804C0E868A96922182846FFF712
:10088000C9FC1FE08068C0B103689342FAD1027BC3
:10089000130712D4026801604368E41844604346B9
:1008A0002846BDE8F041D0E40020BDE8F0812A6987
:1008B000914238BF29610A19E5E7002322462846FC
:1008C000FFF766FEE8688045EED2A0EB0800A96954
:1008D000E86001EB0802AA6140F00100506048F0B6
:1008E0000300486001F10800BDE8F08130B4184B06
:1008F0001A6882B94FF480525A604FF480344FF036
:10090000FF32DA601A610422124D9C605A61C5F808
:10091000BC21114A1A6011F1400F17D28269AAB1A5
:10092000C368283199420BD200F5E0710C68A242ED
:1009300003D34D682C44A24202D389680029F5D123
:10094000C16999423CBF4FF0FF32C26100F0A8BEBE
:10095000A4A300206C9B00206859883C2DE9F84F27
:1009600000258946090AC9F1000B08BF002323D0DE
:10097000B1F5803F28BF1F231ED2A1F58072120C53
:1009800002F008029140A1F580531B0C03F0040310
:100990009940A1F58044240CC2F10E0204F0020437
:1009A000D21A121BA14002EBD132D11D29FA01F358
:1009B00003F0010303EB4203074607F5987858F864
:1009C000230030B31F2B0FBF4C465C08C4F1190441
:1009D00009FA04F4AC46594600E064004268D208C3
:1009E000D200A2EB09028A4203D21100054600F0B0
:1009F0006981426910304FEAD47B50F82B00002AFD
:100A00001CBF824294460028E7D18B466046B0BBAB
:100A1000BDBB012202FA03F35B005842796803432D
:100A20000B4000F04E81584203405B1E180B00F053
:100A30001000C340590901F00801CB409A0802F0A8
:100A40000402D3405C0804F002040818E3401018C4
:100A5000C3F3400620183044F3401B1858F8230015
:100A60000DE008464168C908C900A1EB09015945D4
:100A70003CBF8B46054601690029F2D14069002838
:100A8000F0D1002D00F01D81B868A0EB090083456E
:100A900080F0178139698D42C0F011816868C00803
:100AA000C00009EB0B01884218BF00F0FDFD05EB0B
:100AB0000906B54280F00381EC68D5F818A0AC4275
:100AC0000CD0A8683969884223D3C268AA4204BFFF
:100AD000A168A9421DD1C460A0601CE005F1140109
:100AE0000C6834B905F110010C68A4B101E011469D
:100AF0000C6804F114021068002802BF04F110020F
:100B000010680028F3D13869814202D300220A60BC
:100B100001E000F0C9FDBAF1000F36D0E86908EB3A
:100B2000800001688D4209D10460200014D1E86979
:100B30007968012282409143796026E038698245D4
:100B400008D3DAF81010A94214BFCAF81440CAF842
:100B5000104001E000F0A8FDBCB13869844212D316
:100B6000C4F818A0286930B13969884226BF2061CD
:100B7000846100F099FD686938B13969884202D30F
:100B80006061846101E000F08FFDBBF1100F0CD2B9
:100B9000D94449F00300291D6860281D51F8092037
:100BA00042F0010240F8092088E049F00300686043
:100BB0004BF0010070604FEADB0046F80BB01F28D5
:100BC0001DD807EBC00101F12804396821FA00F2B1
:100BD000D307A34605D4012202FA00F00843386087
:100BE00006E0A068396988422CBF834600F05CFDAE
:100BF000A660CBF80C60C6F808B0F4605EE05FEA6F
:100C00001B2008BF002123D0B0F5803F28BF1F2143
:100C10001ED2A0F58072120C02F008029040A0F5DE
:100C20008051090C01F004018840A0F580431B0CA1
:100C3000C2F10E0203F00203521AD21A984002EBDC
:100C4000D032D01D2BFA00F101F0010101EB42017D
:100C5000F16100227261326108EB81007A6822FA48
:100C600001F4E30707D4012404FA01F11143796088
:100C70000660B0611DE002681F291DBF4908C1F16F
:100C800019010BFA01F1594600E002465068C0080C
:100C9000C000584518D002F11003C80F03EB8003C1
:100CA000490018680028F0D13869834204D31E60D7
:100CB000B261F660B66001E000F0F6FC14E100F00D
:100CC000F3FC0EE18B46A2E6396990688A4228BFA0
:100CD0008842F1D3C6609660B060F2600020B061D7
:100CE000ECE72DE9F84F0646884671684842014016
:100CF000491E080B00F01000C1404A0902F008022A
:100D0000D1408B0803F00403D9404D0805F00205DB
:100D10001018E9401818C1F34004281806F5987A0D
:100D20002044E14009185AF821104868C008C00062
:100D30000D46A0EB080909E001464868C008C0005C
:100D4000A0EB080048453CBF81460D4608690028D5
:100D5000F2D149690029F0D130698542C0F0BF80E5
:100D60006968C90808EB090BC900594518BF00F0AC
:100D70009BFC05EB08008542009080F0B080EF6896
:100D8000AC69AF420CD0A8683169884223D3C268ED
:100D9000AA4204BFB968A9421DD1C760B8601CE06F
:100DA00005F114010F6837B905F110010F68A7B1FB
:100DB00001E011460F6807F114021068002802BF15
:100DC00007F1100210680028F3D13069814202D384
:100DD00000220A6001E000F067FC002C31D0E869D5
:100DE0000AEB800001688D4208D107608FB9E8697D
:100DF0007168012282409143716022E0306984422F
:100E000005D32169A94214BF6761276101E000F0A1
:100E10004BFCB7B13069874211D3BC61286930B14E
:100E20003169884226BF3861876100F03DFC6869FE
:100E300038B13169884202D37861876101E000F0FE
:100E400033FCB9F1100F0BD24BF00300291D686081
:100E5000281D51F80B2042F0010240F80B203DE024
:100E600048F003012A1D696049F0010042F80800BA
:100E7000009941F80990D6F808804FEAD80BBBF1E9
:100E8000200F28BF00F010FCB8F1000F22D006EBB5
:100E9000CB00776900F12804A246B8F1100F38BFE3
:100EA00000F002FC306820FA0BF1CA0705D40121DA
:100EB00001FA0BF10843306006E0A068316988420E
:100EC0002CBF824600F0F0FBA760CAF80C70C7F890
:100ED00008A0FC60C6F808900098706104E000F07B
:100EE000E3FB0020BDE8F28F05F10800BDE8F28FBA
:100EF0002DE9FE4F0546AFF30080F52DDFF89C6726
:100F000080F004810B2D31BF10250B35ED08ED006D
:100F10003068EC08E04010F0030F46D0C04300F00A
:100F20000100041906F1280000EBC408E700D8F816
:100F300008506868C008C000B84218BF00F0B4FB91
:100F4000D5F80890454508BF00F0AEFB4D4508BFF9
:100F500000F0AAFB6868C008C000B84218BF00F0E3
:100F6000A3FBC84507D13068012101FA04F420EA47
:100F7000040434600DE03069814508D3D9F80C10C1
:100F8000A94204D1C8F80890C9F80C8001E000F02B
:100F90008BFB47F00300291D6860281DCA5942F0E9
:100FA0000102C25105F10804F8E0B168A94280F0DD
:100FB000BE80002800F0A1804FF0010808FA04F17B
:100FC000490000FA04F4484201430C4060420440E6
:100FD000641E200B00F01000C440610901F00801FC
:100FE000CC40A20802F00402D440630803F00203DC
:100FF0000818DC401018C4F3400718183818FC40D3
:10100000241806F1280000EBC40AE700DAF808907B
:10101000D9F80400C008C000B84218BF00F044FB73
:10102000D9F808B0D14508BF00F03EFBD94508BF4C
:1010300000F03AFBD9F80400C008C000B84218BF5D
:1010400000F032FBDA4506D1306808FA04F420EAF1
:10105000040434600DE031698B4508D3DBF80C00E3
:10106000484504D1CAF808B0CBF80CA001E000F064
:101070001BFB7F1B45F0030009F10402C9F80400C3
:1010800047F00101515109EB05020192D751B468B3
:101090004FEAD40ABAF1200F28BF00F005FB34B3A1
:1010A000CDF800A006F12800756900EBCA0AD34606
:1010B000102C38BF00F0F8FA3168009821FA00F2DD
:1010C000D30704D408FA00F00843306007E0DAF8E8
:1010D0000800316988422CBF834600F0E5FACAF85F
:1010E0000850CBF80C50C5F808B0C5F80CA0B76094
:1010F00009F108040198706150E07068C0B3294696
:101100003046FFF7EEFD040011D047E015F1400F27
:1011100028BF4FF0FF350AD20B35ED087068ED009F
:1011200028B129463046FFF719FC040036D1B068D3
:10113000A8421DD3411B726910290AD3501970614E
:10114000B16041F001034360415045F00305556033
:101150000BE00021B1607161131D40F0030151608B
:10116000111D1C5844F001040C5002F1080415E054
:10117000F06885420DD2401BB169F0604A19B26136
:1011800040F00100506045F003054D6001F1080496
:1011900004E029463046FFF7F7FA0446AFF3008033
:1011A0002046FFF7EEBA002800D170472DE9F0473E
:1011B000A0F10805AFF30080DFF8E06431698D42EB
:1011C000C0F05982686800F00302012A00F05382DF
:1011D000C2084FEAC209C20705EB090839D42C68D6
:1011E00010F0030F00F04982604205448D42A14493
:1011F000C0F041827069854200F0C680E408202C6E
:101200005ED2D5F80CA0AF68554508BF00F04CFA87
:10121000BD4208BF00F048FA6868C008C000B0EBE3
:10122000C40F18BF00F040FA06F1280000EBC4001C
:10123000874205D031698F423FD3FA68AA423CD138
:10124000BA452CD13068012101FA04F420EA0404E3
:101250003460454580F00F82D8F80440E00740F143
:101260000A82A10700F16881B069804540F09F8043
:10127000F168B5618944C6F80C9049F001006860D6
:1012800071698D4202D100207061B060F0694845FB
:1012900080F0F38100213046FFF728FBEDE1824525
:1012A00006D03069824508D3DAF80810A94204D183
:1012B000C7F80CA0CAF80870CBE700F0F5F9C8E74A
:1012C000EC68AF69AC420BD0A868884222D3C168F1
:1012D000A94204BFA268AA421CD1C460A0601BE05E
:1012E00005F11402146834B905F1100214689CB1B8
:1012F00001E01A46146804F114031868002802BFBC
:1013000004F1100318680028F3D18A4202D30021A7
:10131000116001E000F0C8F9002F9AD0E96906F5E4
:10132000987000EB81000268954209D104602000AA
:1013300011D1E8697168012282409143716088E7A8
:101340003069874205D33969A94214BF7C613C6189
:1013500001E000F0A9F9002C3FF47BAF31698C4229
:10136000ABD3A761286928B1884226BF2061846178
:1013700000F09AF9686900283FF46BAF3169884240
:101380009BD36061846164E798F8040000F0030077
:1013900003287FF45EAFC6F8089049F00101D8F841
:1013A000040040084000C8F8040069600AE0706961
:1013B00080450AD1B16875618944C6F8089049F042
:1013C0000100686045F8099057E1E408E400A14491
:1013D000E408202C3AD2D8F80CA0D8F80870D045F0
:1013E00008BF00F061F9B84508BF00F05DF9D8F812
:1013F0000400C008C000B0EBC40F18BF00F054F9DF
:1014000006F1280000EBC400874207D031698F4203
:10141000C0F08580FA68424540F08180BA4507D126
:101420003068012101FA04F420EA0404346078E011
:10143000824506D03069824571D3DAF808104145FB
:101440006DD1C7F80CA0CAF808706AE0D8F80C4053
:10145000D8F8187044450DD0D8F808003169884292
:1014600023D3C268424504BFA16841451DD1C46071
:10147000A0601CE008F114010C6834B908F11001F7
:101480000C68A4B101E011460C6804F11402106864
:10149000002802BF04F1100210680028F3D130695F
:1014A000814202D300220A6001E000F0FDF8002F23
:1014B00037D0D8F81C1006F5987000EB8100026850
:1014C00090450AD10460200012D1D8F81C00716840
:1014D000012282409143716023E03069874205D345
:1014E0003969414514BF7C613C6101E000F0DCF8E2
:1014F000BCB131698C4212D3A761D8F8100028B171
:10150000884226BF2061846100F0CEF8D8F814002C
:1015100038B13169884202D36061846101E000F032
:10152000C3F849F00100686045F8099071698D427F
:101530000BD1C6F80890A0E064086400C8F8044025
:1015400049F00100686045F809904FEAD907202F5B
:1015500022D206F1280000EBC704A046B9F1100F13
:1015600038BF00F0A1F8306820FA07F1CA0705D4A7
:10157000012101FA07F70743376006E0A0683169E7
:1015800088422CBF804600F08FF8A560C8F80C5048
:10159000C5F80880EC6070E05FEA192008BF002100
:1015A00023D0B0F5803F28BF1F211ED2A0F5807246
:1015B000120C02F008029040A0F58051090C01F0D5
:1015C00004018840A0F580431B0CC2F10E0203F019
:1015D0000203521AD21A984002EBD032D01D29FAD7
:1015E00000F101F0010101EB420106F598720023C0
:1015F00002EB8100E9616B612B61726822FA01F3F1
:10160000DC0707D4012303FA01F11143716005607F
:10161000A8611DE002681F291DBF4908C1F1190119
:1016200009FA01F1494600E002465068C008C000CE
:10163000484526D002F11003C80F03EB8003490090
:1016400018680028F0D13069834204D31D60AA6174
:10165000ED60AD6001E000F027F8306A401E3062B6
:101660000BD1D6F8C80100E080680028FCD14FF00B
:10167000FF30306201E000F017F8AFF30080BDE802
:10168000F087316990688A4228BF8842E3D3C560F9
:101690009560A860EA600020A861DEE76C9B0020EE
:1016A00030BC002070470000012000F053B8F0B4B7
:1016B0000246106895681318506803EB5004C00781
:1016C0001DD54D441BE013F8017B05F8017B491E35
:1016D000F9D1A0B1B60813F8011B06F00306032EDA
:1016E00008BF13F8016B01EB06214942801C294415
:1016F00005D011F8016B05F8016B401EF9D1A3422A
:101700000ED013F8016B16F0030104BF13F8011B90
:10171000C91C30090F28DAD113F8010B0F30D6E7B6
:10172000F0BC02F10C0070470749086808B10020BE
:1017300070470648C008C00008600549C908C900CC
:10174000091A0160704700BF1CA400202FB40020BC
:1017500028C4002080B5AFF30080024A1100182091
:10176000ABBEFBE7260002002DE9F04F89B005462D
:10177000139C92469846200000F00F818946129EE5
:10178000484600F094FD0746484600F069FDADF874
:1017900014004846ADF810A0ADF81280ADF81670F0
:1017A00000F021FE8246484600F03DFE8046484655
:1017B00000F05FFE022806D12346324604A95046B7
:1017C00000F0EFF8ADE1484600F0D9FD48B90094CB
:1017D000334601902C68284604AA51462569A8473B
:1017E0009FE1494606A800F084FDBDF91E00BDF941
:1017F00018E0BDF91A30BDF91C10ADF80200B6F9B9
:101800000090B08848440FFA80FCE6451BDA01EBF3
:101810000E02714409B28945ADF8002013DAB6F919
:101820000220B6F806C094440FFA8CF7BB42BFBF43
:10183000BDF80210C9180FFA81FB5A4503DAF145C9
:10184000A8BFCE4605E04FF0000E00220020002188
:1018500011E09A42BDF9009007B209B20FFA8CFC70
:10186000B8BF1A46B945B8BF48466145A0EB0E005F
:10187000C8BF6146891AADF80C00ADF80E10BDF96D
:101880000C10ADF808E0ADF80A2000291CBFBDF926
:101890000E00002800F0828000942846002102AB50
:1018A00001912D6804AA5146D5F810C0E047BDF952
:1018B0000A00B6F90210814213DAB6F90030B6F91F
:1018C0000420401AADF81A10ADF8183006ABADF888
:1018D0001C2004AAADF81E0041460094504600F0BA
:1018E00023F9B6F90000BDF90810884215DABDF8F1
:1018F0000820BDF90E10BDF90A30ADF81800ADF89A
:101900001E104146ADF81A3006AB121A0094ADF81D
:101910001C2004AA504600F007F93188B088BDF8B1
:1019200008204118BDF80C0009B2821812B28A4290
:1019300013DABDF90E00BDF90A30891AADF8182086
:10194000ADF81A3006ABADF81C1004AAADF81E00B5
:1019500041460094504600F0E7F87188F088BDF8E1
:101960000A204118BDF80E0009B2821812B28A424C
:1019700013DAB6F90030B6F90400891AADF81A2066
:10198000ADF8183006ABADF81C00ADF81E10009491
:1019900004AA4146504600F0C7F8C2E0009433461E
:1019A000F6E72DE9F04F89B0044616460D461F466E
:1019B00006A8082200F0A0FD04A831460822DFF89E
:1019C000DC6700F099FD06A800F023FE294604A874
:1019D00000F034FEBDF91220BDF91C10BDF9100055
:1019E000BDF9165011FB02F10818BDF8181004EBF0
:1019F0008008BDF81000BDF914400818ADF81000BB
:101A0000BDF81A0082183068ADF8122001688A6BA0
:101A10009047FF2F019733D1800633D43068DFF829
:101A2000809701680A6A9047B9F80030BDF9121032
:101A3000BDF910204B439918002D00EB41036CDDDC
:101A40002A460097002C5CDD2146D8F800E05FEACA
:101A50001E6051D0FF284FEA1E2C4FEA5E150CF491
:101A6000784C05F4FC65CEF3C40E04BF019FFF2F34
:101A70001AD145EA0C0C4EEA0C0CA3F800C03BE06E
:101A80004006CBD5ADB23068A4B203970195BDF83E
:101A90001C100094BDF81230BDF8102002910468AB
:101AA0004146656CA8473CE0DDF800A01F8800FBBC
:101AB0000AF0C0F5803A07F4784B0AFB0BFB00FBF9
:101AC0000CBC07F4FC6B0AFB0BFB07F01F070AFBBF
:101AD00007F74FEA1C4C0CF4784C00FB05B500FBF3
:101AE0000E772D0C05F4FC6545EA0C0C3F0C07F055
:101AF0001F0747EA0C071F809B1C491E08F10408BA
:101B0000A3D1B9F80000001B03EB4003BDF91C0092
:101B1000001B521E08EB800894D1306801684A6AA5
:101B2000904709B0BDE8F08F2DE9F04F85B08046B1
:101B30000D4616461F460E9C68463146082200F0A8
:101B4000DBFC02A83946082200F0D6FC684600F00B
:101B500060FD314602A800F071FDBDF90A20BDF913
:101B60000410BDF90800BDF90C7011FB02F1081852
:101B70002E1808EB4008BDF80800BDF80010BDF9AC
:101B80000E500818ADF80800BDF802008218DFF802
:101B90000C060068ADF80A2001680A6A9047DFF871
:101BA0000036BDF90A10B3F800C0BDF90820FF2CBB
:101BB00001FB0CFC0CEB020100EB410052D0012DAB
:101BC00049DB2A4604940546012F38DB3946307834
:101BD00078B3049CB5F800C0B8F800E06043C0F5E5
:101BE00080340CF4784A0CF4FC6B04FB0AFA0CF019
:101BF0001F0C04FB0BFB0EF4784904FB0CFC00FBF0
:101C000009A90EF4FC6A00FB0ABA0EF01F0E00FBD5
:101C10000EC04FEA194909F478494FEA1A4A0AF402
:101C2000FC6A000C4AEA090900F01F0040EA0900BA
:101C30002880AD1C761C491E08F10208C7D11888FF
:101C4000C01B05EB4005BDF90400C01B521E08EB8C
:101C500040080644B8D1DFF84405006801684A6AC4
:101C6000904798E2012DF6DB2A460546012F3BDB23
:101C70003946307890B3B8F800E0FF2808BFA5F8DF
:101C800000E02BD0B5F800C0C0F580740CF4784AA1
:101C90000EF4784904FB0AFA0CF4FC6B0CF01F0CF0
:101CA00014FB0BFB14FB0CFC00FB09A90EF4FC6AF3
:101CB00010FB0ABA0EF01F0E10FB0EC04FEA1929D6
:101CC00009F478494FEA1A2A0AF4FC6A000A4AEA37
:101CD000090900F01F0040EA09002880AD1C761CAD
:101CE000491E08F10208C4D11888C01B05EB400545
:101CF000BDF90400C01B521E08EB40080644B5D1D4
:101D0000A9E72DE9F04F89B00C46DDF848A015464B
:101D10001E46BAF1000F00F0B880139F07A82946AD
:101D2000082200F0E9FB05A831460822DFF86C64C0
:101D300000F0E2FB07A8D04600F06BFC294605A89E
:101D400000F07CFCBDF91620BDF92010BDF914008F
:101D5000BDF91A5011FB02F10818BDF81C1004EB74
:101D60004009BDF81400BDF918400818ADF814007A
:101D7000BDF81E0082183068ADF8162001688A6B25
:101D80009047B8F1FF0F00F08180400700F1848098
:101D90003068DFF80C7401680A6A90473B88BDF927
:101DA00016C0BDF91410B8F1FF0F0CFB03FC8C44F6
:101DB00000EB4C0000F0C78019F0030101BF10F0E8
:101DC000030204EBD4725210B4EB420178D1BDF996
:101DD00020E0CDF808E0714601EBD17E4FEA6E0EAF
:101DE000B1EB4E01CDF804E06AD1002D0146C8F5F3
:101DF000807846DDC2EB630328460393DFF8A43303
:101E00000025002C34DD00940C6859F8047BAD1CCF
:101E10004FEA142E0EF0F81E08FB0EFE4FEA172CA8
:101E20004FEA571B0CF0F81C0BF03F1B07F01F1775
:101E30000AFB0CEC4FEA541E0EF03F1E04F01F1478
:101E400008FB0EFE08FB04F40CF0F82C0AFB0BEB6D
:101E500003EADB0E0AFB0744240A04F01F144EEACF
:101E60000C0C44EA0C0441F8044B009CA542CBDB6B
:101E7000019F039D01EB8501BF1A401E09EB8709F5
:101E8000BED1306801684A6A90474AE639007FF45B
:101E90007FAFC0077FF57CAF3068ADB2A4B20497C6
:101EA000CDF80CA0BDF820100195BDF816300094B7
:101EB000BDF81420029104684946256CA84730E615
:101EC000002DC8F58073DCDD29460246002C2EDD8E
:101ED0002046158839F802CB05F4784A03FB0AFA44
:101EE00005F4FC6B05F01F0513FB0BFB0CF4784E9F
:101EF00013FB05F508FB0EAE0CF4FC6A18FB0ABADE
:101F00000CF01F0C18FB0C554FEA2E2E0EF4784ED9
:101F10004FEA2A2A0AF4FC6A2D124AEA0E0E05F04C
:101F20001F0545EA0E05401E22F8025BD1D1388814
:101F3000001B02EB4002BDF92000001B491E09EB0B
:101F400040099ED0C2E7002D9BDD4FEA440882463F
:101F50002C46306843464A4651460568D5F834C099
:101F6000E047641E3888BDF920100AEB400A09EBEF
:101F70004109EED185E72DE9F04385B0154601A86A
:101F8000082200F0B9FA01A8DFF8107200F041FB56
:101F9000386801688A6B9047C00717D43868DFF843
:101FA0000082002601688A6A9047B8F80030BDF9BF
:101FB0000610BDF90420ADF800504B43991800EB12
:101FC0004104684600F00FFA054636E04FF6FE7011
:101FD000854208D13868DDE9012311461A460368B5
:101FE0005C6DA04730E0ADF80C5003A800F0FBF9A1
:101FF00004463D6803A800F033F900902346DDE96C
:1020000001010A4601462C682846A56DA8471BE039
:102010003868BDF9083022462946761CD0F800C041
:102020005B00DCF83490C847B8F8000004EB4004CB
:10203000684600F015F905EB4005BDF90A00864237
:10204000E6DB684600F0CFF905B0BDE8F0832DE986
:10205000F04F1D46E8B2002885B01FBFB1F904401B
:10206000002CB1F90630002B00F08180904603A8C7
:102070000822DFF8286100F03FFA03A8EDB200F073
:10208000C8FA30682F4601688A6B9047FF2F12D13B
:10209000800712D530680295BDF81020BDF81210E7
:1020A000BDF80E300092BDF80C2001910468414645
:1020B000E56CA8476FE00007ECD43068BDF910501C
:1020C000BDF9124008F01F0917FB09F9C7F5807A1E
:1020D00001680A6A9047DFF8C820BDF90EC0118870
:1020E000BDF90C30FF2F08F4FC6E17FB0EFE01FB50
:1020F0000CFC0CEB03011FFA88FC0CF4784C00EB91
:10210000410307FB0CFC33D0002C2CDD21466C0076
:102110006442002D21DD2846B3F8008008F478479A
:102120000AFB07C708F4FC6B08F01F081AFB0BEB4F
:102130003F0A07F47847401E1AFB08984FEA1B2B0A
:102140000BF4FC6B4BEA07074FEA182808F01F084E
:1021500048EA070823F8028BDED118191388491EB4
:1021600000EB4303D5D1306801684A6A904712E01A
:10217000002CF8DD21466C006442002D04DD284669
:10218000401E23F8028BFBD118191388491E00EB5F
:102190004303F2D1E7E705B0BDE8F08FC8A3002004
:1021A000C4A30020E007E0073CB41446DFF8345332
:1021B000AA683AB9049AA8606980204602B0194614
:1021C00030BC01E033BC704718B4DFF81843A36992
:1021D0002BB921B1A2802162206111BC02E011BCA7
:1021E00070470000DFF8FC221169002900D1704718
:1021F00070B493885088DFF8F4521818461C05EA2A
:10220000460501EB800656612E44D66001EB800640
:102210002E4406EB0316966100261680166AA6EB7E
:102220008004641BA4EB0313D3610023D38048B163
:1022300053694FF6FF740025401E41F8045B23F8F4
:10224000024BF9D10020002105E0D4680023401C96
:102250000C441031A37393889842F6D370BC704736
:1022600081B001889F4B98680A46B8B1B3F802C0A4
:10227000614506D202EB820108308900405A01B064
:10228000704798886044824208DAD868A2EB0C0252
:10229000120100F10801885A01B070474FF6FE7133
:1022A0008A4206BF92490888002001B0704738B4BE
:1022B00001888C4B98680A4690B15C88A14204D290
:1022C00002EB820100EB810007E09D886519AA42BC
:1022D00006DAD868121B00EB0210408932BC704746
:1022E0004FF6FE718A4206BF82490888002032BC40
:1022F000704730B583B00A887A4CA16831B36588DD
:10230000AA4215D202EB820201EB8201B1F90C2044
:10231000ADF80020B1F90E20ADF80220B1F910306F
:10232000ADF80430498AC1F30C01ADF8061020E085
:10233000A18869188A4209DAE168531B03B00822B0
:1023400001EB0311BDE8304000F0D6B84FF6FE7146
:102350008A420BD10021664B0091664A595EB2F960
:102360000040ADF80410ADF8064002E000210091F5
:1023700001916946082200F0BFF803B030BD594A08
:1023800081B0916861B300885388984211D200EB04
:10239000800290000A180831138A085A83421CD31D
:1023A000508A518901B0C0F30C0088428041C00FAF
:1023B0007047B2F804C09C44604511DAD168C01A75
:1023C00000010A180831B2F90430085A8342A2BF4A
:1023D000B2F906005189884202DA012001B0704743
:1023E000002001B0704781B001884FF6FF70814234
:1023F00008BF002015D04FF6FE70814204D13A4844
:102400000168086C01B07047364A106900281CBF8B
:1024100050F82100002804D1906801EB810291005E
:10242000405801B0704781B000884FF6FE710246F7
:102430008A421BDA2B494B88984217D2886802EBF4
:10244000820300EB8303586880B1096900291CBF2F
:1024500051F8221000290AD01A89588901B0424344
:102460005200D21C920801EB82007047002001B09C
:10247000704738B501881B4B98680A46A0B15C8844
:10248000A14206D202EB820100EB8100C07C400930
:1024900032BD9D886519AA4206DAD868121B00EB86
:1024A00002108089C0B232BD4FF6FE718A4216D149
:1024B0000D490A6890680368196A8847012806D0A0
:1024C000022806D0042806D0182806D007E00320EA
:1024D00032BD052032BD062032BD012032BD0020B4
:1024E00032BD000060A30020C8A30020FCFF010053
:1024F000C0A30020C2A3002062B38B0708D0521EE5
:1025000011F8013B00F8013B00F024808B07F6D165
:10251000830740F0208000BF103A07D330B4B1E801
:102520003810103AA0E83810F9D230BC530724BF55
:10253000B1E80810A0E8081044BF51F8043B40F887
:10254000043BD20724BF31F8022B20F8022B44BFF2
:102550000B7803707047121F17D35B0009D151F835
:10256000043B20F8023B1B0C121F20F8023BF6D262
:102570000BE051F8043B00F8013B1B0A20F8023B3A
:102580001B0C121F00F8013BF3D238BF121D521E64
:1025900024BF11F8013B00F8013BF8D8704770B533
:1025A0000E460546307995F82C40401E8041C00FFC
:1025B00085F82C0095F82C0008B12CB900E0A4B1E6
:1025C000296828464A6990477CB1307901280CD1A6
:1025D000A86A50B10168CA68904730B1A86A294614
:1025E00002689368BDE87040184770BD1F4A1378B1
:1025F000012B00D0704770B41E4C0A88B4F900500B
:10260000B0F900306E1EB61A06800B8070BC7047A1
:10261000000070B50446164E1748B6F90030B0F900
:10262000005084B000220021009501A800F026F897
:102630000146204600F002F804B070BD0B4A137842
:10264000012B00D0704710B4B0F90420048814198D
:10265000631E4488048089884C1EE31A4380C38823
:10266000C280838010BC704700000000BEA3002021
:10267000C0A30020C6A30020C2A3002010B5BDF94E
:102680000840018042808380C48010BD2DE9F04164
:102690008EB0DFF84C4900F003FD00F0BBF900F00C
:1026A0003CFB684600F0A9F9DFF8380900252060F6
:1026B0000122DFF8340962614FF48031A06204F135
:1026C00030066160A5602046256104F52D77A5617F
:1026D000DFF8188984F82050E562E560E261357022
:1026E00000F006FD01210422019169460092204676
:1026F000029500F025FDDFF8F8080122B06104F131
:102700004800B583F562356304F58C75B26300F05B
:1027100041FEDFF8E0080021286028466960A960D2
:10272000E96029616961A96129626962A962E96256
:10273000296300F06BFEDFF8C0080121F063002080
:10274000316404F17C0600228DF800008DF803004E
:102750008023ADF80400B060F0604FF400003280D8
:10276000E122306104F16C008DF801308DF8022017
:10277000C6F804D000F092FEDFF88008002138602F
:102780000122C7F804803846B960FA60396179617E
:10279000B961F961396201F087F80021384601F02A
:1027A00043FB0021384601F054FBDFF854080021B8
:1027B0000122F864C7F850807965BA65F965396611
:1027C0007966B966F96604F54077384601F06CF829
:1027D0000021384601F028FB0021384601F039FB82
:1027E00000F096F900F0EBF900F04CFA04F55370A4
:1027F0000022DFF810180261002701604260826049
:10280000C760426182614FF04020286504F5B470D2
:102810006A65AA65EA652A666A66AA66EA662A673A
:102820006A67AA67DFF8E05701F05AFBDFF8DC07B8
:102830004FF48271B0634FF4407070644FF40070D5
:10284000F163072230650821376404F1B400B764EE
:10285000F7647765B765F76537667266B766F166E0
:1028600004F5747601F074FB00F0C6F800F0C8F8C7
:102870003560304677604FF48055B760F760376158
:10288000B76101F0BFFB00F09AF8304601F0FBFBA6
:10289000009769460297304601F05CFF00F094F81B
:1028A000DFF86C77079201F0B6FC304602F005FBCA
:1028B00000F0A2F800F0A4F8002037647064B0645F
:1028C000F0643065B06504F58266304601F09AFB2D
:1028D00000F075F8304601F0D6FB0021304600913B
:1028E0000291694601F036FF00F06EF8DFF82477B8
:1028F00007920C2201F08FFC304604F58A6602F044
:10290000DCFA03A800F079F86846002100220023D1
:1029100080E80E00376030467160B160F16032616E
:102920007161B16101F06EFB039503A9304600258A
:1029300001F00CFD0022029500926946019230469A
:1029400001F008FF68461C2102F0FCFBDFF8C80616
:102950007564B564F5643565B56504F592653064F4
:10296000284601F090FB602100F01CFB28460292F3
:10297000049201F050FC28464FF4E13502F09DFA34
:1029800004F5DA70DFF8941600F026F804F50D70FF
:10299000DFF88C1600F020F802F0EFFB02F02CFCC0
:1029A00068460FF2E8611422FFF7B6FD0021684681
:1029B00002F048FCC4F8D00402F02EFCFEE70A95B1
:1029C0000AA9304601F0C2BC60210022039103A98C
:1029D0000492304605927047002201608260002315
:1029E000002183610C224560C36001614261C161C5
:1029F0000162436202F0C4BC0AA8102102F0A2BB2B
:102A0000684600210022002380E80E0003A81C2154
:102A100002F098BB18B5B3B0DFF8084627A82146E6
:102A20003022FFF779FD01A8142102F08BFB06A8E4
:102A300004F130018422FFF76FFD02F0CFFEDFF8D2
:102A4000E805016841F080510160006800F08050A5
:102A500000900099DFF8D405026842F44042026019
:102A60000368092227A803F44043009300992792A2
:102A7000022201212D922C914FF480012E911922D6
:102A80004FF4C8712F9230914FF480330222092104
:102A900028933192329102F0A9FE03F021F90F211F
:102AA000022201914FF4A0510292002304914FF4AD
:102AB000805203930621059201A803F020F8DFF865
:102AC0007015642206914FF4C071079205220B9194
:102AD00001210D9203220E924FF400720F910223F6
:102AE00010914FF400311191002112924FF00062C9
:102AF0000A9306A8089309930C93169117911C91B9
:102B00001F9121912592269103F024F934B010BD34
:102B10001FB5DFF82005DFF820150122042301602E
:102B200010244260182183604FF4A0620023C46027
:102B300001614FF0104442618361C361036203F09D
:102B4000A5FB03F0A1FE03F02BFF5C2004F082F84C
:102B500001211B228DF8001003218DF8082000228E
:102B60008DF80B10022101946846ADF80E208DF807
:102B70000D208DF8011000F01AF8172201218DF8B0
:102B80000820002203238DF80010019468468DF878
:102B90000B308DF80F208DF80E108DF80D208DF86C
:102BA000013000F004F8042004F063F81FBD8DF834
:102BB0000A208DF809208DF80C2004F067B838B58C
:102BC00092B00CA818210FF2C04402F0BBFA25689D
:102BD00001A800952C2102F0B5FADFF8604400212D
:102BE000DFF85C047F222060FF2361602046A26042
:102BF0000AADE36021616161A16104F07DF800210B
:102C00000122ADF8301020468DF83210109111914C
:102C10000CA904F0B7F8012101228DF8001020461C
:102C20008DF8021000218DF8031069468DF80120FF
:102C300004F00DF900214FF48070ADF8041001226A
:102C40008DF806100291059106910791089109915E
:102C500001218DF8281001A96860204604F059F977
:102C600001204FF400718DF828000122696001A94C
:102C7000204604F04EF902220021204604F04EFACC
:102C800013B030BD0020402238B5EE4C0021206347
:102C9000ED4DA06301232061EC4862630022E061F6
:102CA0000120A260A2616262082260642046256061
:102CB0006160E1636161E160A162E1622264A1643B
:102CC000E16421656165A165E365216604F05AFA56
:102CD000032304F184004360002105F12002016117
:102CE000012302600163402481630122C163836088
:102CF000002381614162816208214463C360C36231
:102D0000016442648364C364036543658365C2658B
:102D10000366BDE8324004F035BA2DE9F84F86B0BD
:102D200068461421DFF8289302F00CFAC948DFF84E
:102D300028A3046844F0100404600568C74C05F03B
:102D40001005059505990268C54D42F040020260E4
:102D5000036803F0400300F021F942F00202026030
:102D6000036803F0020300F019F942F00802026060
:102D7000036803F0080300F011F942F00402026056
:102D8000036803F0040300F009F942F00102026055
:102D9000036803F0010300F001F942F400720260DD
:102DA000036803F4007300F0F9F842F480720260E3
:102DB000036803F4807300F0F1F842F4806202606B
:102DC000036803F4806300F0E9F842F02002026037
:102DD000036803F0200300F0E1F842F08002026093
:102DE0000068012200F0800005900599204620210E
:102DF00004F03DFC00220C21284604F038FC01229E
:102E00000821984804F033FC01224FF480512846F1
:102E100004F02DFC00224FF40051484604F027FC3A
:102E20000022C821504604F022FC082100F0BAF824
:102E30008D48029204F0B4FA43F623410222009135
:102E400000230192032102930A220391049269460E
:102E50008648DFF81C8204F0A3FA022200234FF414
:102E6000004101920091012202936946039340467A
:102E70000492804E04F094FA4FF4805100F092F8DE
:102E80007D4802924FF4005704F08AFA4021002254
:102E900000916946019620460292DFF8E0B104F005
:102EA0007FFA202100F083F82046039304F078FA9B
:102EB00041F20C0100F07BF82846039304F070FA0D
:102EC00000970021019158460291694604F068FA82
:102ED000082100F06CF86348039304F061FA1021B4
:102EE00000F060F820460292002404F059FA48F2FB
:102EF000040100F057F84846029204F051FA009796
:102F0000012101910022029269460392484604F091
:102F100047FA00970022019669460292284604F07B
:102F20003FFA022110220191032100920023039114
:102F30000A22029369460492484604F031FAC822F4
:102F4000012300926946019350460294039404F0D1
:102F500027FA052102220091032101920A220391FE
:102F6000694602945846049204F01AFA0422019425
:102F7000009269460294504604F012FA2822032176
:102F80000092022303910A2201936946029440466B
:102F9000049204F005FA07B0BDE8F08F0593059997
:102FA0000268704700220091694601927047012231
:102FB00000910023019269460293704780B504F0A6
:102FC00075FB04F07FFB02F018F9012002F051F9C3
:102FD000FBE700682A49884208BF04F0A5BB704798
:102FE000608D0020002201400100000FFFEAC000B8
:102FF00000300240000005500080024000540040B4
:10300000005C0040002C01400004004000380040FB
:10301000000C004000040140001800400010014076
:1030200000140140240701084038024000700040AD
:103030006848B1018CA00020001000A084A30020EB
:1030400000280040449D0020045C014000EE020086
:10305000001C02403038024000180240000C0240C0
:1030600000200240002802400010024000040240FC
:10307000000002400000121000240240000802403C
:10308000001000407047000000000000B81F010859
:10309000BD2F00080000000000000000001000002C
:1030A00080B5032003F0A1FD002004F045FB01F0F2
:1030B000C3FB002002BD0B46C16B8B4200D17047A1
:1030C00010B500F150010C78012C06D9A41E012C7A
:1030D0000BD80022B1F9061002E0B1F90620002158
:1030E00018461B685C6DA04710BD0121017210BD20
:1030F00070B5044600250CB9012070BD04F13C06F2
:10310000706820B9204601F0B3FBB5603570726875
:10311000D10610D4706820F4885040F0020070602E
:10312000204600F0ACF8B560716821F0020141F072
:103130000101716000E0012500203070284670BD5B
:1031400002460020F8B5009092F83C30012B01D1E6
:103150000220F2BD0725012082F83C000C681368AC
:103160008A480A2C18D30A3CDE6804EB4404A540C4
:1031700026EA0505DD600D688C68854204D1DD68AE
:1031800045EA0465DD6017E00A3DDE6805EB4505AC
:10319000AC403443DC600FE004EB44041E6905FAE4
:1031A00004F426EA04041C611C690E688D6806EBB1
:1031B0004606B5402C431C614C681F25072C0CD2D9
:1031C000641E5E6B00F055F85D635D6B4C680E88A5
:1031D000671E00F049F85D631BE00D2C0CD2E41F64
:1031E0001E6B00F046F81D631D6B4C680E88E71FD0
:1031F00000F03AF81D630CE00D3CDE6A00F039F88F
:10320000DD62DD6A4C680E88A4F10D0700F02CF831
:10321000DD625A4DAB4222D10C68594B122C03D1BE
:103220001D6845F480051D600C68844218BF112C90
:1032300015D11C6844F400041C600B6883420ED155
:10324000504D514C2E680A21B6FBF4F44C430094C7
:1032500002E0009B5B1E009300980028F9D100213A
:10326000002082F83C10F2BD07EB8707BE403543D3
:10327000704704EB8404A54026EA0505704710B5A5
:103280003F4A136823F440331360146841680C43C9
:1032900014600268536823F48073536051680369B3
:1032A00041EA03215160516821F040715160536837
:1032B00081680B435360946824F4006494609368BD
:1032C000C1680B439360846A314B9C4210D0916873
:1032D00021F0706191609368816A0B4393609468F8
:1032E00024F0405494609368C16A0B43936007E0F4
:1032F000936823F070639360916821F0405191606E
:10330000936823F0020393609168836941EA430163
:10331000916090F8201071B1536843F400635360DA
:10332000516821F4604151605368416A491E43EA83
:103330004133536003E0516821F400615160D36A66
:1033400023F47003D362D16AC3695B1E41EA03515F
:10335000D162916821F400719160936890F8301007
:1033600043EA41239360936823F4806393609168F8
:10337000406941EA8021916010BD000000200140B9
:1033800004230140140D002040420F0012000010E1
:103390000100000F10B504001FD0617F19B9002291
:1033A000227701F0A1FA02216177207970B92268B1
:1033B000154951612068836823F0180383606079A0
:1033C00068B922684FF0FF3111610BE0E268A16833
:1033D000204604F0EDF90028F1D0012010BD21684D
:1033E0002069086121688A68606922F060020243EE
:1033F0008A6021688A68A06922F080020243002066
:103400008A600121617710BDB71DC10470B5040049
:1034100001D1012070BD94F8350010B9204601F0AB
:1034200076FA02211C4884F8351021680A680240A7
:103430000A6023681D6866686069E268216906435E
:10344000A0681643A2690E43216A0643606A1643C8
:10345000A26A0E43E16A0643206B16430E430643FD
:1034600035431D606268102A0BD1207F617FA27FE7
:10347000236840EA0120E17F40EA024040EA01601F
:10348000986120680122C16841F01E01C1600020DE
:10349000E06484F8352070BD07F0E0FFFEB5044617
:1034A000002000900CB90120FEBD04F144052878ED
:1034B00020B900212046697001F099FADFF8700305
:1034C0004FF48056026842F480420260006800F4C3
:1034D000804001900199DFF85C130A6822F4000231
:1034E0000A600B68206A03430B602068815941F031
:1034F0000101815104F082F9074620688259D10701
:1035000040F18E8004F07AF9C01B40F2F51290422F
:10351000F3D303200021287098E0DFF81C23DFF8A4
:103520001C3312189A4238BF46F00C0621BFDFF850
:1035300010733F18DFF80C2397420AD3DFF8081303
:10354000DFF808330818984234BF46F0040646F006
:10355000100620684FF4004200210661204600F06A
:10356000BAF800284DD140F6FF76304604F04CF909
:103570006068002839D004F041F9074641F28936E5
:1035800000F069F804F03AF9C01BB04258D2009834
:103590004107F5D54FF480520021204600F09BF8FA
:1035A00078BB04F02BF9074600F055F804F026F933
:1035B000C01BB04244D200988106F5D56A461F214F
:1035C000204600F04CF8E0B90098C10647BF4FF420
:1035D0000062E2600020E0600099480759BF4FF4A4
:1035E0008041A1600022A26013E0A068E26800218F
:1035F000C003000C520340EA1242204600F06BF870
:1036000020B100F025F801202870FEBD304604F0FE
:10361000FBF8002100F01DF8012028700020FEBDFD
:10362000066902F018FBDFF82812DFF828220918D3
:10363000914226F01C06BFF470AF46F0080688E7FA
:1036400000F006F801200021287003206970FEBDFB
:103650000121204676E06A4601212046FFE72DE958
:10366000F041044604F1440630780F46154682289E
:1036700008BF02202DD08221BF013170206807F4DD
:10368000F8670169228AD20202F4784201F01C0133
:1036900011430F4347F00107076104F0AFF880467C
:1036A00001E020680769F9070CD504F0A7F8A0EB42
:1036B0000800B0F5803FF4D30120002130700320D2
:1036C000717006E022680121506980B228600020F4
:1036D0003170BDE8F081F8B5044604F1440528785E
:1036E0000E46422801D10220F2BD4221B6012970C6
:1036F000206892B206F4F8660169238A4261206864
:10370000DB0203F4784301F01C0119430E4346F039
:103710000306066104F072F8074601E021680E69AD
:10372000F0070BD504F06AF8C01BB0F5803FF5D365
:1037300001200021287003206970F2BD01220020C1
:103740002A70F2BD70B5044629B14FF400604FF401
:103750008041E060A160E06925683F4A00282E684A
:10376000A168E0680CBF4FF48063002316400E434D
:103770000643334343F4007301202B602D6804F0AB
:1037800043F82068402105604160456800F06CF80E
:10379000216800204D608860C8608A694FF64170DA
:1037A000024042F080028A618D6900F05DF8206875
:1037B00000218561C161C56900F056F8216841F2B8
:1037C00018022648CD618B58034043F0087343F03C
:1037D000040301208B508D5804F016F8206820490E
:1037E00000F5805085610160056800F03DF82068B3
:1037F00000F580500560A169012905D1C26942F434
:10380000803242F04002C261606916490379427910
:1038100043EA02230B608278C4784378007812046C
:1038200042EA046242EA032202434A6070BD000099
:10383000443802400438014040F1E9FD40787D0100
:1038400000796CFC005A6202001F0AFA80F0FA024A
:1038500000D3CEFEC0E1E4000F8120FF233FDEF85D
:103860008020C10240800240012003F0CDBF0B4602
:10387000C16B8B4200D1704710B500F150010C783C
:10388000012C06D9A41E012C0BD80022B1F9061078
:1038900002E0B1F90620002118461B685C6DA047C4
:1038A00010BD0121017210BD38B5040001D1012005
:1038B00032BD00F065F820B900212046297001F0E2
:1038C00000F900F054F86068226820F07060106120
:1038D0002068816821F400418160E068A1680128C6
:1038E00020680CBF41F4004141F404418160E1686B
:1038F000022903D122684FF40060506020684168BB
:1039000041F0007141F4004141602068C26822F436
:103910000042C260216960692368A269014341EAEB
:103920000221D960E169206A2268014311602068A0
:103930000021036843F00103036020206960687080
:1039400000202163A97032BD38B5040001D10120E7
:1039500032BD04F1400500F00AF8204601F007F9F5
:103960000020686068702063A870287032BD242031
:103970006870206801684908490001607047044682
:1039800004F14005687870472DE9FE4F00F0FCF81F
:103990004ED10C9D002D1CBF0D9F002F03D14FF465
:1039A000007161603FE02078012841D00121217041
:1039B00003F024FF00F065F8002834D1212000F046
:1039C000ECF800F022F910B1002020702BE0718D8E
:1039D000FF25B1F5807F19D300F0CCF800F045F851
:1039E0000E9F4A463946304600F08CF900281AD11D
:1039F00000F02CF888B189B279B900F03AF890B9A2
:103A000000F019F805D300F0E9F804E000F017F829
:103A1000E4E700F0EAF800F028F8708D0028E0D123
:103A200000F094F808B1012003E000F0C7F800E0CE
:103A30000220BDE8FE8F708DB0F5807F7047728DDB
:103A40004FF000733285D2B200907047706A3268CE
:103A500001789162736A581C7062718D4A1E72857A
:103A6000338D591E3185708D70474146304600F0C8
:103A7000C4B9CDF800903B4600228021304600F0CA
:103A800020B981461923CDF8009001224FF400415E
:103A9000304600F016B92DE9FE4F00F075F852D10E
:103AA0000C9D002D1CBF0D9F002F03D14FF4007102
:103AB000616043E02078012845D00121217003F0A6
:103AC0009DFEFFF7DEFF002838D1222000F065F8C8
:103AD00000F0B8F810B1002020702FE0718DFF25A4
:103AE000DFF81C01B1F5807F1BD300F043F8FFF72E
:103AF000BCFF0E9FCDF800903B460022042100F051
:103B000040F800281AD100F026F888B189B279B9B6
:103B1000FFF7AFFF90B9FFF78EFF05D300F05EF817
:103B200004E0FFF78CFFE2E700F05FF8FFF79DFF8E
:103B3000708D0028DED100F009F808B1012003E003
:103B400000F03CF800E00220BDE8FE8F4A4639460E
:103B5000304600F0FEB83068416A726A1170318DEB
:103B6000706A431C7362491E3185728D531E7385C2
:103B7000708D704735854FF080730090FF2270473D
:103B80000097304600F09DB8064606F14004607884
:103B9000884692469B46202870474021607000204E
:103BA000A1705B46606052467562778570630E99BE
:103BB00000914146CDF8049030467047316820208E
:103BC0000023C8613168DFF834004A6802400020F1
:103BD0004A6020216170A3702070704735850021F4
:103BE00000914FF08073FF227047728D00214FF0DB
:103BF00000733285D2B200917047000000E800FEE9
:103C00000024008090F8410070472DE9FC4100F04D
:103C100035F84FF08073EAB200F0EFF8324600F06A
:103C20003FF860B9012D02D000F036F838B92068AD
:103C3000FFB243460022802100F02AF800B10120A3
:103C4000BDE8F6812DE9FC4100F018F80023EAB246
:103C500000F0D3F8324600F023F860B9012D02D00D
:103C600000F01AF838B92068FFB24346002240211C
:103C700000F00EF800B10120BDE8F6811746DDF82E
:103C80002080099EDFF894211D460092044670476B
:103C900087622046009614E02168380A324688621E
:103CA000414620462EE0006881698A0744BF002310
:103CB00083628169CA0703D4836943F00103836186
:103CC00070472DE9F04105460E4690461C46069F7A
:103CD000286881693140B1420CBF01200020404575
:103CE0000DD114F1010FF3D003F088FDC01B844205
:103CF00001D3002CECD100F020F8012000E00020DE
:103D0000BDE8F08170B505460C4616462868816905
:103D10008A0710D400F035F858B914F1010FF5D026
:103D200003F06CFD801B844201D3002CEED100F027
:103D300004F8012070BD002070BD05F14000202274
:103D40004168002341F0200141604270837003709C
:103D5000704770B505460C461646286881698A0684
:103D60000DD400F00EF840B903F048FD801B8442EA
:103D700001D3002CF1D1FFF7E0FF012070BD00203E
:103D800070BD324621462846FFE770B505460C4611
:103D9000286816468169CA061AD5286881698A0684
:103DA00018D414F1010FF8D003F028FD801B8442D1
:103DB00001D3002CF1D105F14000416841F0200110
:103DC000416020224270002383700370012070BD87
:103DD000002070BD1022C26129682020C8612846D9
:103DE000FFF761FF29680E484A68024005F140006C
:103DF0004A60416841F00401E2E770B50068049C44
:103E0000084EC1F3090146EA54564568B5432943B3
:103E100041EA024119432143416070BD0020008006
:103E200000E800FEFF63FF0330B500F14002537865
:103E3000202B0CD11478012C09D000F01DF824F4AB
:103E400080541C6003681D682943196020E002202B
:103E500030BD30B500F140025378202B0AD11478E0
:103E6000012C07D000F008F824F4706444EA01241F
:103E70001C600DE0022030BD012324241370547017
:103E800003681D686D086D001D6003681C6870473D
:103E900000680023016841F001010160202050709A
:103EA0000020137030BD30B4002513E050F8042B0F
:103EB000D30744BFA9F101039A18091F042942F846
:103EC000045BFAD213468C0744BF15809B1CC907BC
:103ED00048BF1D7050F8041B0029E7D130BC704763
:103EE00070B5040001D1012070BD04F1440568786B
:103EF00020B900212046297000F025FF02206870BB
:103F0000206801688908890001602368DFF83C00A7
:103F10001E68A26961680640A0681643E2680E4305
:103F20002169064360691643E2690E43216A06432C
:103F3000606A1643A26A0E4301210643002016431D
:103F40001E6000236B60697070BD00000784F8FF7D
:103F5000F8B5040001D10120F2BD002104F15C0597
:103F6000A162687818B92970204600F01AFF022073
:103F70006870206800F041F8E168B1F5E06F04D99D
:103F80000023B1F5706F03D104E04FF4805301D0EA
:103F90000022A262206B30B9B1F5E06F87BF022129
:103FA0002163012020636668A26821696069A769AE
:103FB0001643E2690E43064307F40077216A3E4345
:103FC000A06A164327680E4306433E60A669626AEC
:103FD000616BE068360C06F0040616430E43064398
:103FE00033432668012273602068C16921F40061AF
:103FF000C161002068606A70F2BD016821F0400173
:104000000160704738B5040001D1012032BD00F0D5
:104010004BF818B900F044F800F006FF29E002223E
:10402000DFF88C1080F83D20026893680B40062B67
:1040300018BFB3F5803F03D0136843F0010313604A
:10404000012180F83D10002070470168DFF8600012
:10405000CA6842F00102CA608A680240062A18BF94
:10406000B2F5803F03D00A6842F001020A600020E6
:1040700070470220211D6870206800F0C6F90120F9
:104080006870002032BD38B5040001D1012032BD76
:1040900000F00AF818B900F003F800F0FCFEE8E7B9
:1040A000002120462970704704F13C05687870476C
:1040B0000700010010B50446206801698A0715D57C
:1040C000C368990712D56FF00202012302612377BA
:1040D000806910F0030F204602D003F0A9FB03E033
:1040E00003F0A7FB00F094F8002020772068016916
:1040F0004A0715D5C368590712D56FF00402022389
:1041000002612377806910F4407F204602D003F0DB
:104110008FFB03E003F08DFB00F07AF8002020779E
:10412000206801690A0715D5C368190712D56FF011
:104130000802042302612377C06910F0030F2046B0
:1041400002D003F075FB03E003F073FB00F060F8AE
:104150000020207720680169CA0615D5C368D906F2
:1041600012D56FF01002082302612377C06910F4A2
:10417000407F204602D003F05BFB03E003F059FBD5
:1041800000F046F80020207720680169CA0708D5AA
:10419000C368D90705D56FF0010202612046FEF71A
:1041A00018FF206801690A0608D5C368190605D5F5
:1041B0006FF080020261204603F03CFB2068016939
:1041C000CA0508D5C368190605D56FF48072026167
:1041D000204603F030FB206801694A0608D5C36811
:1041E000590605D56FF040020261204603F024FB1A
:1041F000206801698A060AD5C368990607D56FF059
:10420000200202612046BDE8104003F016BB10BD3D
:10421000204603F013BB70B500F08CF801D10220EA
:1042200070BD00F08EF852B1042A1CD0082A2FD09D
:104230000C2A41D0102A54D0142A66D079E0306874
:10424000294600F031F93068816941F00801816147
:104250003068826922F00402826131688B692869C2
:1042600003438B6165E03068294600F049F9306806
:10427000816941F4006181613068826922F4806261
:104280008261306881692A6941EA0221816150E0D6
:104290003068294600F064F93068C16941F00801CE
:1042A000C1613068C26922F00402C2613168CB6921
:1042B00028690343CB613CE03068294600F07FF970
:1042C0003068C16941F40061C1613068C26922F49B
:1042D0008062C2613068C1692A6941EA0221C16114
:1042E00027E03068294600F089F93068416D41F0D7
:1042F000080141653068426D22F004024265316870
:104300004B6D286903434B6513E03068294600F084
:1043100097F93068416D41F4006141653068426D44
:1043200022F4806242653068416D2A6941EA0221C7
:10433000416552E0064606F13C0420780D4601280E
:1043400070470121022021706070704770B500F045
:1043500056F801D1022070BD012202232270DFF83D
:104360002C0363702A689368034093600868060012
:1043700018BF10282DD0202818BF302829D0402859
:1043800023D0502816D0602818D0702803D0B0F55C
:10439000005F07D021E000F023F82868816841F031
:1043A000770105E000F01CF82868816841F480413D
:1043B000816012E000F019F850210BE0CA684968EA
:1043C000286800F094F9602104E000F00EF8402124
:1043D00000E00146286800F09CF900F00AF870BD82
:1043E000CB684A68896828689BE1CA684968286878
:1043F0006CE10120002160700020217070470546AB
:1044000005F13C04207801287047F0B5DFF88052B0
:104410000668A842DFF87C42DFF87C32DFF87C7265
:10442000DFF87CC218BFB0F1804F07D0604518BFDD
:10443000B84203D0984218BFA0420DD14A6826F076
:1044400070061643A84218BFB0F1804F17D06045E0
:104450001CBFB842984212D0A0421CBF914B984258
:104460000DD0914A90421CBF904FB84207D0904B5C
:1044700098421FBF8F4A90428F4FB84203D1CB68FA
:1044800026F440761E434A6926F080061643A84269
:1044900006608B68C3620E68866212BFA04209691B
:1044A000016301224261F0BDF0B5026A834C5208FB
:1044B00052000262076A456886690B688A6827F0BD
:1044C00002072640724C1E431743724BA04218BF8E
:1044D000984207D1CA6827F008071743A04227F07F
:1044E000040701D0984205D14B6925F440758A69CB
:1044F0001D43154345608661496841630762F0BD0D
:10450000F0B5026A22F010020262056A436884690B
:104510006B4A0E6825F020058F6814405D4A44EA16
:1045200006245B4EB04245EA071518BF904208D1F9
:1045300025F08005CF6845EA0715B04225F0400513
:1045400001D0904206D14E698A6923F44063164334
:1045500043EA860343608461496881630562F0BD74
:10456000F0B5026A554B22F480720262066A446812
:10457000C5690A688F6826F400761D40444B1543D0
:10458000444A984246EA072618BF904208D126F4CA
:104590000066CF6846EA0726984226F4806601D076
:1045A000904206D14B698A6924F44054134344EA8B
:1045B00003144460C5614968C1630662F0BDF0B58B
:1045C000026A22F480520262056A4368C4693C4A66
:1045D0000E6825F4005500F052F845EA07351CBF77
:1045E0002C4EB04204D123F480434A6943EA82133B
:1045F0004360C461496801640562F0BDF0B5026AB8
:10460000304B22F480320262066A4468456D0A68C3
:104610008F6826F400361D401D4B1543984246EA2C
:1046200007461CBF1B4A904204D124F480344B69D6
:1046300044EA032444604565496881650662F0BD2B
:10464000F0B5026A22F480120262056A4368446D82
:104650001D4A0E6825F4001500F011F845EA0755CB
:104660001CBF0C4EB04204D123F480234A6943EAB4
:104670008223436044654968C1650562F0BD8F6867
:104680001440034A904244EA062470478800FEFF23
:104690000000014000040140000C00400008004000
:1046A0000004004000400140004401400048014037
:1046B00000180040001C0040002000408CFFFEFF5E
:1046C000FF8CFFFE8FFFFEFFFF8FFFFE30B5036AFA
:1046D000046A640864000462856923F00A031943CC
:1046E00025F0F00545EA02158561016230BD10B57F
:1046F000036A23F0100303628369046A23F470439E
:1047000043EA023324F0A004836144EA0114046202
:1047100010BD826822F07002114341F007018160F0
:10472000704710B5846824F47F442143114341EA63
:104730000321816010BD10B54268C36802EB6302BB
:10474000DB0751BF83681468806823581046BDE8B2
:1047500010401847F0B500F13C042278012A01D13D
:104760000220F0BD0123022223706270304A0568E6
:1047700095421CBF2F4A95426E68AF6803D14B68C3
:1047800026F470061E4326F070068A68096827F032
:1047900080070E4300216E60174300680122876086
:1047A000002062702170F0BD70B590F83C20012AA5
:1047B00001D1022070BD012380F83C30CD688A68A9
:1047C0004C680B6825F44075154325F48065254336
:1047D00025F400650A691D4325F480554B6915438E
:1047E00025F400558A6A1D4325F480458B691543DD
:1047F00025F4702545EA034503680D4A93421CBF22
:104800000C4CA3420CD125F470054E6A45EA0655BE
:10481000CA69096A25F08075154325F000750D43B6
:104820005D64002280F83C20002070BD0000000084
:10483000000001400004014082B0DFF888080168F0
:1048400041F080510160026802F0805200920099AC
:10485000426842F4804242604068002200F4804096
:10486000009000996FF0010002B00F2102F0CAB968
:1048700038B586B000F090FA2468DFF83458AC42BE
:1048800030D1DFF83008416941F48061416142690B
:1048900002F4806200920099036843F020030360F1
:1048A000026802F020020092009900F094F84FF4A0
:1048B000F863DFF8140802F0010200920099032265
:1048C000019300210292039101A902F069FD0121E7
:1048D000032201910023029201A90393DFF8EC0760
:1048E00002F05EFD07B030BD81B00068DFF8E4176C
:1048F00088420AD1DFF8BC07026842F480520260A5
:10490000006800F480500090009901B0704738B5FD
:1049100086B000F013FA2468DFF8BC57AC424AD1E5
:10492000DFF89007416841F001014160426802F000
:10493000010200F08CF900F094F902F0080200F096
:104940006FFA43F040030360026802F0400200F097
:1049500067FA43F080030360026802F0800200F00F
:1049600038F86023DFF8740700F053FB0D2100F0E6
:1049700024F80222082100F024F8DFF8640700F090
:10498000E6FA02224FF4007100F01BF8DFF854073A
:1049900000F0DDFA02224FF4BC4100F012F8DFF81B
:1049A000480700F0D4FA0222502100F00AF8DFF89C
:1049B0001C0700F0CCFA07B030BD0491694602F044
:1049C000EFBC0192002300910D22029369460393EC
:1049D000704705920599036843F00103036002687C
:1049E0007047DFF8E806BDE8044002F0B4BD70B5DA
:1049F00086B000F0A3F92468DFF8F056AC424FD13E
:104A0000DFF8B006066846F000760660016801F03F
:104A1000007100F047F843F080630360016801F023
:104A2000806100F03FF843F000630360016801F02B
:104A3000006100F037F843F040030360016801F0C3
:104A4000400100F02FF843F004030360016801F017
:104A5000040100F027F843F00103036001684FF4FC
:104A6000D043DFF8800601F001010591059A02218B
:104A70000093019100220292032103910B220492E0
:104A8000FFF79CFF322100F011F8DFF8640602F016
:104A900087FC862100F00AF8DFF8300602F080FC7F
:104AA00006B070BD0591059A036870470222009117
:104AB00003210192002303910B2202936946049281
:104AC000704770B586B0044668461421DFF8245656
:104AD00000F038FB2068DFF8DC45A8421FD12668CB
:104AE0004FF44073DFF8100646F002062660216896
:104AF00001F002010591059A122100930191012212
:104B000002920021039104220492FFF757FF2069CB
:104B100040F400102061216901F4001123E0DFF866
:104B2000DC15884221D12268DFF8BC0542F0800202
:104B3000226023684FF4C07203F080030593059947
:104B4000009212230121032202910421049169465B
:104B50000193039202F024FC206940F400002061DC
:104B6000216901F400010091009806B070BD006851
:104B7000DFF88025DFF84C15904208D1086820F452
:104B8000001008604FF44071DFF86C050BE0DFF8AF
:104B90006C25904209D10B68DFF84C0523F4000323
:104BA0000B604FF4C07102F0D6BC704738B586B0C8
:104BB00000F0C4F82468DFF84855AC4230D1DFF883
:104BC000F404DFF83445816841F0020181608268B5
:104BD00002F0020200F03BF800F011FA00F041F898
:104BE0000423DFF8F80400F01DF8092100F0A0F814
:104BF000402100F096F80A2202936946049220466A
:104C000002F0CEFB042100F017F8204602F0C8FBAA
:104C10004FF4605100F010F8DFF8C40402F0C0FB5C
:104C200007B030BD02F008020592059902220093F8
:104C3000002101920291704702220091032101920A
:104C4000002303910922029369460492704705925A
:104C50000599036843F010030360026802F0100234
:104C6000704705920599036843F0080303600268E2
:104C700070470068DFF88814884200D0704780B51C
:104C8000DFF880040421026822F0020200F00AF832
:104C90004421DFF8640402F05EFC4FF46051DFF859
:104CA0004004A0E60260DFF8340402F054BC00685F
:104CB000DFF85414884205D1DFF85004026842F44A
:104CC00000420260704738B586B000F037F82468BB
:104CD000DFF83C54AC4222D1DFF8D803416941F4FB
:104CE00000614161426902F4006200F080F902F063
:104CF0000402FFF7B6FF4FF4F853DFF8F403FFF7B1
:104D000091FF0C2100F014F8042100F00AF80C22A5
:104D1000029369460492DFF8C80302F041FB07B032
:104D200030BD0222009103210192002303917047BC
:104D3000032204910392694602F032BB044668469E
:104D4000142100F0FFB910B586B000F025F82468F2
:104D5000B4F1402F1ED1DFF85C03016941F48031CA
:104D60000161026902F4803200920099FFF77BFF33
:104D70008023DFF86C0302F00802009200990222FF
:104D8000019300210292039104910821059101A948
:104D900002F006FB06B010BD044601A8142100F085
:104DA000D1B938B586B0FFF7C9FF2468DFF864537E
:104DB000AC4233D1DFF8FC02016941F4804101616A
:104DC000026902F4804200F02BF843F48073036020
:104DD000026802F4807200F023F843F002030360DB
:104DE00002680223DFF8300302F0020205920599FF
:104DF000009300210193029103910521FFF7DDFD4E
:104E000002224FF4404101920023009105220293B7
:104E100069460393DFF8E00200F099F807B030BD6F
:104E2000059205990368704781B00068DFF8EC22AD
:104E3000DFF89012904207D1486840F001004860C6
:104E4000496801F0010114E0DFF8D422904205D155
:104E50000B6843F002030B60086816E0DFF8C42219
:104E6000904209D1086840F008000860096801F024
:104E70000801009100980CE0DFF8AC22904208D1C4
:104E80004B6843F002034B60486800F0020000905A
:104E9000009901B0704781B00068DFF89012884235
:104EA00009D18848026842F040020260006800F0C0
:104EB00040000090009901B0704738B586B0FFF708
:104EC0003DFF2068954C7B49A0420DD10D684FF401
:104ED00080737E4845F001050D60096801F001010D
:104EE00000F038F801222EE08D4A90420CD10B6878
:104EF000814843F002030B600968102301F00201AE
:104F000000F028F802221EE0864A90420CD10B687D
:104F1000814843F480730B600968012301F48071B8
:104F200000F018F802220EE0804A90420DD10B6882
:104F30006D4843F080030B600968402301F0800155
:104F400000F008F8092200F002F807B030BD049222
:104F500002F026BA0591059A0221009300220191E0
:104F6000029269460392704710B586B0FFF7E6FEDD
:104F700021686F4C4F48A1421ED1416941F0100198
:104F80004161426902F0100200F039F8FFF721FD9B
:104F90008023594800F03DF80721FFF70EFD02225B
:104FA0004FF4007101920023009107220293694699
:104FB00003934648049216E05E4A914215D1416936
:104FC00041F020014161426902F0200200F00FF837
:104FD000C023474802F00402FFF726FE08210322FF
:104FE00004910392694602F0DBF906B010BD059208
:104FF0000599036843F00403036002687047059253
:105000000599036843F002030360026802F002029C
:10501000704702F0010205920599022200930021D7
:10502000019202910391704770B586B006463068D0
:10503000414900F041F818D1286840B9226842F48B
:1050400000022260216801F400010591059A002206
:10505000401CF02102920392022328600A22009150
:10506000694601932C48FFF772FF3268334B9A422E
:105070001AD1286840B9216841F4000121602268F2
:1050800002F40002059205990021401C02914FF4A0
:10509000806203910A2128600223049169460092EC
:1050A0001048019302F07CF906B070BD00000000CA
:1050B0000022014030380240054C214D88427047A3
:1050C000000000004038024000140240000002408E
:1050D00044380240003002400000055000100240F9
:1050E000000C024000180240001C024000800240F8
:1050F000000802400054004000040240005C0040F0
:10510000001000A0383802400028004070380240EB
:10511000002C014000380040002002400000014007
:1051200000040040000C0040000401400018004052
:105130000010014000140140045C0140245C014067
:1051400004A40020002202F08BBB10B54268C368A3
:1051500002EB6302DB0751BF836814688068235841
:105160001046BDE810401847264802F0B9BB4FF47E
:10517000F07070474FF48870704780B502F07FFD83
:1051800002F0AFFD02F020FD02F02AFF43F2D20050
:105190004FF02041086001BDF8B584B00020194CE3
:1051A000039002904FF4887701904FF4F0730097CA
:1051B00004F52A6204F6B421204602F015FF012608
:1051C000054600962F68012310224FF0404104F657
:1051D000A4247E6FB04705F145060220F07301213B
:1051E00000223170F2742046727002F039FF2C6197
:1051F0000120F07505B0F0BDCEE7034908680268EC
:10520000D368184708000020C8A3002001460020EA
:10521000842918BFC81C704780B503F0D1F800205E
:1052200002BD80B503F0E3FA012801D1002002BDE0
:10523000012002BDEFF30580002818BF03F049B933
:1052400003F043B93EB504460D46B4F90800FFF734
:10525000DDFF02A9009001912269216860682B4658
:1052600092B202F0C1FF012801D000203EBD029899
:105270003EBD80B500B9012003F083F8002002BDD7
:105280004FF08051DFF8E8201160BFF34F8FBFF37C
:105290006F8F704741680068002203F035BC03B58A
:1052A00081B00021009102B90122EFF3058149B1DB
:1052B00000F044F801280BD1009808B1FFF7E0FF97
:1052C00000200EBD002302A903F04FFC0128F7D0F7
:1052D000FF200EBDF8B5054684B0084600230290B5
:1052E000019310B900F02FF826E000F034F808BF61
:1052F0004FF0FF3400F035F849B103AA01A903F0DB
:1053000085FE012806BF10220092009708E0224681
:1053100001A903F056FD012807D11021009109E0F1
:10532000039838B1FFF7ACFF04E0002C0CBF00205D
:105330004020009000F01EF805B0F0BD00236A4642
:1053400002A903F0ACBC80216A46009192E85800A3
:1053500085E8580070470024002712F1010F0397D9
:10536000704701D002B11446EFF305817047000089
:1053700004ED00E0684690E80E0085E80E007047F6
:1053800038B5040009D004F17005696809B900F066
:105390001FF800F022F8012801D1012032BD606A17
:1053A00008B100F02AF800F00BF822F02A0282601F
:1053B00000F01DF8FFE72046BDE8324000F0B0B92C
:1053C0002068416821F490414160206882687047FC
:1053D000002028702046FFF7C7BD2421696020689F
:1053E0000268520852000260204600F00DB82068A2
:1053F000016841F0010101607047204600F02CB9BE
:10540000284600F0ACB90000F8B504468648266886
:10541000002300253768A1682269074060690F43AF
:10542000E169174307430F4337607268E06822F46D
:10543000405202437260B268A169206A22F430626D
:105440000A4302437948B260794A964221D1016801
:1054500001F00301032903D8DFE801F06938294787
:105460001020E1694FF6F076B1F5004F40F0A880CA
:1054700060B1012800F07F80022800F07F800428BE
:1054800000F08180082800F087808DE000F0E6FBC6
:105490007BE068498E420CD1006810F00C0068D0A7
:1054A000042813D0082802D00C281ED0D8E70220E8
:1054B000D7E761498E420BD1006810F0300058D018
:1054C000102803D02028F2D03028EEE70420C8E7C7
:1054D0005A498E420BD1006810F0C00049D04028D4
:1054E000F4D08028E3D0C028BAD10820B9E75449C5
:1054F0008E420CD1006810F440703AD0B0F5807F35
:10550000E4D0B0F5007FD2D0B0F5407FCDE74D4A72
:1055100096420ED1016811F4406108D0B1F5806F58
:10552000D4D0B1F5006FC2D0B1F5406FBDE7012016
:1055300097E7454A96420CD1006810F4405018D0C5
:10554000B0F5805FC2D0B0F5005FB0D0B0F5405F7D
:10555000ABE73E498E4283D1026812F4404208D044
:10556000B2F5804FB2D0B2F5004FA0D0B2F5404FA7
:105570009BE7002075E700F079FB06E0606834499E
:1055800001EB50010CE000F040FB61684A0802EBBF
:105590004002B2FBF1F305E06068410801F580319B
:1055A000B1FBF0F39BB200E00125A3F11000B04283
:1055B00033D221681E40C3F342000643CE602DE083
:1055C00040B1012809D002280AD004280DD00828AB
:1055D00013D01AE000F042FB09E000F047FB06E0C0
:1055E00060681C4901EB50010BE000F00EFB6168A4
:1055F00000EB5100B0FBF1F305E06068410801F5F4
:105600000041B1FBF0F39BB200E00125A3F11000D3
:10561000B04202D22168CB6000E001250020206664
:1056200060662846F2BD0000F369FFEF9038024043
:10563000001001400044004000480040004C004081
:10564000005000400014014000780040007C004001
:105650000048E8010024F40010B590F82410CA07AF
:1056600006D502685368816A23F400330B43536004
:1056700090F82420910706D502685368C16A23F484
:1056800080330B43536090F82420510706D50268FD
:105690005368016B23F480230B43536090F824205C
:1056A000110706D502685368416B23F400430B438E
:1056B000536090F82420D10606D502689368816B68
:1056C00023F480530B43936090F82420910606D571
:1056D00002689368C16B23F400530B43936090F806
:1056E0002420510610D502685368016C23F48013FE
:1056F0000B435360036CB3F5801F05D15468416CB4
:1057000024F4C0040C43546090F82420110606D5FC
:1057100001684A68806C22F4002202434A6010BD8E
:105720007CB5054605F170040020E06002F066F8E3
:10573000296803460A6810070AD56FF07E460022E2
:1057400000964FF40011FFF75BFE08B1032076BD11
:10575000202000226060A0600020227076BD2DE92C
:10576000F04105460E4690461F46069C2868C169D2
:105770003140B1420CBF0120002040451CD114F142
:10578000010FF3D002F03AF8C01B844201D3002C81
:10579000ECD128680023016821F4D07101602868E9
:1057A0002021826852085200826005F17000416039
:1057B00081600370032000E00020BDE8F08110B597
:1057C0004268C36802EB6302DB0751BF8368146859
:1057D000806823581046BDE8104018470248016809
:1057E00041F4807101607047007000402DE9FC4178
:1057F00004460025C4B12078DFF8BC64C1074BD54E
:10580000B26802F00C02042A07D0B06800F00C0065
:1058100008280BD17168480208D5326891033BD53E
:105820006068002840F0C980012066E16068B0F53A
:10583000803F0FD038B9316821F480313160306851
:1058400020F4802009E0B0F5A02F08D1316841F4A0
:1058500080213160306840F48030306007E0326889
:1058600022F480323260316821F480213160606836
:1058700068B101F0C3FF07463168880300F19D80DD
:1058800001F0BCFFC01B6528F6D3032035E101F011
:10589000B5FF07463068810340F18F8001F0AEFF0D
:1058A000C01B6528F6D3F0E701F0A8FFC01B022853
:1058B00040F2B080E9E7E06880B1316841F0010171
:1058C000316001F09BFF07463068810700F1CC8012
:1058D00001F094FFC01B0228F6D9D6E730684008D3
:1058E0004000306001F08AFF07463168880766D5BE
:1058F00001F084FFC01B0228F7D9C6E7706F40088B
:105900004000706701F07AFF0746706F810775D518
:1059100001F074FFC01B0228F7D9B6E708B9306F51
:1059200009E00528306F06D140F004003067316F80
:1059300041F0010105E0400840003067316F21F07F
:1059400004013167A06841F2893768B101F056FF60
:105950008046306F810700F1988001F04FFFA0EB87
:105960000800B842F5D390E701F048FF8046306F59
:10597000810740F18A8001F041FFA0EB0800B842A6
:10598000F5D382E701F03AFF401B022840F29480F1
:105990007BE701F033FF001B022840F2A98074E787
:1059A00001F02CFF04463168880140F1A58001F028
:1059B00025FF001B0228F6D967E7207881071BD551
:1059C000B26812F00C0F09D0B06800F00C00082883
:1059D0007FF471AF716848023FF56DAF326891078F
:1059E00003D5E06801287FF41FAF3168206921F0FA
:1059F000F80141EAC001316021780A070ED56069DB
:105A000000283FF47BAF716F41F00101716701F035
:105A1000F5FE0746706F81077FF546AF2278500785
:105A200038D5316CCA0009D4306C012540F0805063
:105A30003064316C01F0805100910098DFF884727D
:105A40003968C80518D43A6842F480723A6001F0A7
:105A5000D5FE80463868C1050ED401F0CFFEA0EB1C
:105A600008006528F6D310E73068216920F0F800B7
:105A700040EAC1003060BFE7A06801287FF44EAF64
:105A8000306F40F0010030675CE71DB1306C20F0F2
:105A900080503064A06978B3B16801F00C01082926
:105AA0003FF4C2AE0228306820F0807030607FF48E
:105AB00077AF01F0A3FE054631688A013FF562AF7A
:105AC000E369206AA26A616A0343E06A43EA8113D8
:105AD0005208521E43EA024343EA006343F0005374
